S01B00002E2F44656275672F666C6970666C6F705F6972712E7331395F
S315200000000248854600F072F8FEE7C04600C001208F
S3152000001080B500AF0A4B1B680822134006D0094B57
S315200000201B78DBB20133DAB2064B1A70044B1A681E
S31520000030034B08210A431A60C046BD4680BDC04610
S31520000040143C01400801002080B500AF1A4B1B4A22
S315200000501A801B4B00221A801A4B1A68194B1A4910
S315200000600A401A60174B1A68164B8021C9010A43A9
S315200000701A60164B1A68154B08210A431A60144B4E
S315200000801A68134B08218A431A60124B1A68114BBF
S3152000009008210A431A60104B104A1A60104B114A65
S315200000A01A60114B1A68104B802189000A431A6086
S315200000B0C046BD4680BDC046000C024055550000D6
S315200000C00010024008380140FF0FFFFF003C0140AE
S315200000D0083C01400C3C014008ED00E000C0012036
S315200000E064C001201100002000E100E080B500AFCF
S315200000F0FFF7AAFF024A034B1B78DBB21370F9E71E
S31120000100140C0240080100200000000042
S70520000000DA
