S01D00002E2F44656275672F67726170686963646973706C61792E73313990
S315200000000248854600F00AFEFEE7C04600C00120F1
S3152000001080B582B000AF0200FB1D1A70402000F0B0
S3152000002029F8064AFB1D1B78137000F099FD402025
S3152000003000F03AF8C046BD4602B080BD1510024019
S3152000004080B582B000AF402000F014F800F088FDA3
S3152000005000F086FD064AFB1D12781A70402000F03B
S3152000006023F8FB1D1B781800BD4602B080BDC04694
S315200000701110024080B582B000AF0200FB1D1A703D
S31520000080084B1B78DAB2FB1D1B781343DBB20549FC
S31520000090052252421343DBB20B70C046BD4602B066
S315200000A080BDC0461410024080B582B000AF020069
S315200000B0FB1D1A700A4B1B78DBB25BB2FA1D127855
S315200000C052B2D24352B204210A4352B213405AB218
S315200000D0034BD2B21A70C046BD4602B080BDC046A0
S315200000E01410024080B582B000AF0200FB1D1A70CA
S315200000F00120FFF7D9FF0220FFF7D6FFFB1D1B7853
S315200001001800FFF785FFC046BD4602B080BD80B50A
S3152000011082B000AF0200FB1D1A700120FFF7AAFF74
S315200001200220FFF7C1FFFB1D1B781800FFF770FFA9
S31520000130C046BD4602B080BD90B583B000AF0E4B21
S315200001401A680D4B1204120C1A600120FFF7ACFF3F
S315200001500220FFF78FFFFC1DFFF772FF03002370BD
S31520000160054B1A68044B05490A431A60FB1D1B7888
S315200001701800BD4603B090BD001002400000555542
S3152000018090B583B000AF0E4B1A680D4B1204120CBB
S315200001901A600120FFF76EFF0220FFF76BFFFC1DA0
S315200001A0FFF74EFF03002370054B1A68044B0549E1
S315200001B00A431A60FB1D1B781800BD4603B090BD8C
S315200001C0001002400000555580B582B000AF0200F5
S315200001D0FB1D1A70C046FFF7AFFF03005BB2002B72
S315200001E0F9DB082000F0DEFCFB1D1B781800FFF76A
S315200001F079FFC046BD4602B080BD80B500AF38202D
S31520000200FFF7E2FF282000F0CDFC0C20FFF7DCFFF3
S31520000210282000F0C7FC0120FFF7D6FF022000F0BF
S31520000220D7FC0620FFF7D0FF282000F0BBFCC046F5
S31520000230BD4680BD80B582B000AF0200FB1D1A709E
S31520000240C046FFF779FF03001A0080231340802B56
S31520000250F7D0082000F0A6FCFB1D1B781800FFF73E
S3152000026056FF282000F09EFCC046BD4602B080BD49
S3152000027080B584B000AF786039600F217B180022EA
S315200002801A707B68DAB27B18013A1A703B68022B27
S3152000029005D10F22BB18BA18127840321A700F23D4
S315200002A0FB181B78802252421343DBB21800FFF75B
S315200002B019FFC046BD4604B080BDC04680B500AF1C
S315200002C00C4B1B680B4B00221A600A4B1A68094B11
S315200002D009490A431A60094A084B128892B21A80C1
S315200002E0074B1A68064BAA2109040A431A60C0461E
S315200002F0BD4680BD000C024055550055040C0240F9
S315200003000C0C024080B582B000AF0200FB1D1A70B3
S31520000310FB1D1B780F2B44D89A00264BD3181B683D
S315200003209F46254B3F221A703FE0234B06221A7028
S315200003303BE0214B5B221A7037E01F4B4F221A708D
S3152000034033E01D4B66221A702FE01B4B6D221A706C
S315200003502BE0194B7D221A7027E0174B07221A70C3
S3152000036023E0154B7F221A701FE0134B6F221A7061
S315200003701BE0114B77221A7017E00F4B7C221A7064
S3152000038013E00D4B39221A700FE00B4B3F221A70E7
S315200003900BE0094B79221A7007E0074B71221A707D
S315200003A003E0054B00221A70C046C046BD4602B087
S315200003B080BDC046200E0020140C024080B582B0BD
S315200003C000AF78607B68042B19D87B689A000E4BA7
S315200003D0D3181B689F460D4B10221A700FE00B4B4B
S315200003E020221A700BE0094B40221A7007E0074BB7
S315200003F080221A7003E0054B00221A70C046C046C0
S31520000400BD4602B080BDC046600E0020150C0240DD
S3152000041080B582B000AF124AFB1D12781A70FB1D00
S315200004201B780822134001D0042315E0FB1D1B78FE
S315200004300422134001D003230EE0FB1D1B78022269
S31520000440134001D0022307E0FB1D1B780122134035
S3152000045001D0012300E000231800BD4602B080BD74
S31520000460110C024090B587B000AF3B00164A13CA64
S3152000047013C312681A6001237B6119E07B69180097
S31520000480FFF79CFFFFF7C4FF03003B613B69002B8E
S315200004900BD00020FFF792FF7B69013B9A003B6956
S315200004A0013BD3183A00D35C09E07B6901337B61B9
S315200004B07B69042BE2DD0020FFF780FFFF23180075
S315200004C0BD4607B090BDC046740E002080B582B0F0
S315200004D000AF0200FB1D1A70094B1B78DBB25AB223
S315200004E0FB1D1B785BB204218B435BB213435AB2CC
S315200004F0034BD2B21A70C046BD4602B080BDC0467C
S315200005001410024080B582B000AF0200FB1D1A70A5
S315200005100A4B1B78DBB25BB2FA1D127804210A4320
S31520000520D2B252B2D24352B213405AB2034BD2B2D3
S315200005301A70C046BD4602B080BDC04614100240A7
S3152000054080B582B000AF0200FB1D1A70FB1D1B7820
S31520000550082B0CD002DC002B05D01AE0102B0DD076
S31520000560182B12D015E01820FFF7CCFF11E0082039
S31520000570FFF7ACFF1020FFF7C5FF0AE01020FFF7BA
S31520000580A5FF0820FFF7BEFF03E01820FFF79EFF18
S31520000590C046C046BD4602B080BD80B500AF4020F3
S315200005A0FFF7B0FF124B134A1A600120FFF7AAFF8C
S315200005B00220FFF78BFF00F028FB09E04020FFF721
S315200005C085FF00F022FB4020FFF79CFF00F01DFB7B
S315200005D0094B1B78DBB25BB2002BEFDB4020FFF729
S315200005E075FF034B054A1A60C046BD4680BDC0460E
S315200005F00010024055550000111002405555555522
S3152000060080B584B000AF0200FB1D1A704020FFF7B2
S3152000061079FF1A4B1A4A1A600320FFF757FFFB1D72
S315200006201B781800FFF78CFF00F0EFFA4020FFF749
S315200006304DFF144A0F23FB1812781A704020FFF73B
S3152000064061FF0E4B104A1A60FB1D1B78082B04D144
S315200006500820FFF775FFFFF7A0FFFB1D1B78102B67
S3152000066004D11020FFF76CFFFFF797FF0F23FB182D
S315200006701B781800BD4604B080BDC046001002405D
S3152000068055550000111002405555555580B582B07C
S3152000069000AF0200FB1D1A70BB1D0A1C1A701A4AF5
S315200006A0FB1D1B781370BB1D1B781800FFF748FF36
S315200006B000F0ABFA4020FFF709FF00F0A6FA402031
S315200006C0FFF720FFBB1D1B780822134004D008200B
S315200006D0FFF736FFFFF761FFBB1D1B781022134083
S315200006E004D01020FFF72CFFFFF757FF064B002200
S315200006F01A704020FFF7EAFE0020FFF721FFC046D0
S31520000700BD4602B080BDC0461510024080B582B0FD
S3152000071000AF0200FB1D1A70BB1D0A1C1A70402078
S31520000720FFF7F0FEBB1D1B781800FFF709FF03201B
S31520000730FFF7E8FEBB1D1A78FB1D1B781100180079
S31520000740FFF7A4FFC046BD4602B080BD80B582B08B
S3152000075000AF0200FB1D1A70BB1D0A1C1A70402038
S31520000760FFF7D0FEBB1D1B781800FFF7E9FE01201E
S31520000770FFF7ACFE0220FFF7C5FEBB1D1A78FB1D56
S315200007801B7811001800FFF781FFC046BD4602B056
S3152000079080BD80B582B000AF0200FB1D1A70FB1D24
S315200007A01B781800FFF72CFFFB1D1B781800FFF79E
S315200007B027FF03001800BD4602B080BD80B500AFFC
S315200007C0154B164A1A604020FFF780FE0A2000F0DB
S315200007D0E9F97820FFF796FE1E2000F0F9F920208F
S315200007E0FFF774FE18213E20FFF790FF18213F20C7
S315200007F0FFF78CFF1821C020FFF788FF1821402023
S31520000800FFF784FF1821B820FFF780FF0020FFF7AD
S3152000081097FEC046BD4680BD001002405555555531
S3152000082080B582B000AF00237B601EE07B685BB2A0
S315200008304822524213435BB2DBB218211800FFF75D
S3152000084065FF18214020FFF761FF00233B6006E08B
S3152000085018210020FFF77AFF3B6801333B603B6895
S315200008603F2BF5DD7B6801337B607B68072BDDDD65
S31520000870C046BD4602B080BDB0B588B000AFF860B6
S31520000880B9607A60BB68002B00D1ABE0BB68402B17
S3152000089000D9A7E0FB68002B00D1A3E0FB68802BE2
S315200008A000D99FE0BB68013BDB08BB61BB68013B0D
S315200008B007221340072B2CD89A004C4BD3181B68C1
S315200008C09F461F23FB1801221A7022E01F23FB18C4
S315200008D002221A701DE01F23FB1804221A7018E04A
S315200008E01F23FB1808221A7013E01F23FB1810225F
S315200008F01A700EE01F23FB1820221A7009E01F230E
S31520000900FB1840221A7004E01F23FB1880221A705D
S31520000910C0467B68002B05D11F22BB18BA18127857
S31520000920D2431A70FB68402B07D91E23FB181022CE
S315200009301A70FB68413BFB6006E01E23FB18082269
S315200009401A70FB68013BFB60FB68DBB24022134355
S31520000950DAB21E257B191B7819001000FFF7D6FE88
S31520000960BB695BB24822524213435BB2DAB27B19AF
S315200009701B7819001000FFF7C9FE1723FC187B19F6
S315200009801B781800FFF705FF03002370FB68DBB216
S3152000099040221343DAB27B191B7819001000FFF7A7
S315200009A0B5FE7B68002B09D01F22BB18B918172269
S315200009B0BA18097812780A431A7008E01F22BB1861
S315200009C0BA1817217918127809780A401A701E2346
S315200009D0FB181A781F23FB181B7811001800FFF745
S315200009E0B5FE00E0C046BD4608B0B0BD840E00206E
S315200009F080B584B000AFF860B9607A60FB68BA68E9
S31520000A005A60FB687A689A60C046BD4604B080BDCD
S31520000A1080B584B000AF78600023FB601DE07B6862
S31520000A20DA687B681968FB6804335B00CB180433EB
S31520000A301B78D31818007B681A697B681968FB68CD
S31520000A4004335B00CB1805331B78D3180122190019
S31520000A50FFF712FFFB680133FB607B681B681B688E
S31520000A60FA689A42DBDDC046BD4604B080BD80B53B
S31520000A7084B000AF78600023FB601DE07B68DA68F5
S31520000A807B681968FB6804335B00CB1804331B783A
S31520000A90D31818007B681A697B681968FB680433C9
S31520000AA05B00CB1805331B78D31800221900FFF7FB
S31520000AB0E3FEFB680133FB607B681B681B68FA68F2
S31520000AC09A42DBDDC046BD4604B080BD90B583B0FA
S31520000AD000AF78607B689B697A68100098477B68CE
S31520000AE0DB68002B09DC7B681C6A7B685B685942E3
S31520000AF07B689A687B681800A0477B68DB68802B38
S31520000B0009DD7B681C6A7B685B6859427B689A684A
S31520000B107B681800A0477B681B69002B09DC7B6873
S31520000B201C6A7B6859687B689B685A427B681800F8
S31520000B30A0477B681B69402B09DD7B681C6A7B68A4
S31520000B4059687B689B685A427B681800A0477B6877
S31520000B505B697A6810009847C046BD4603B090BDD1
S31520000B6080B500AF0C4B00221A600C4B29221A606C
S31520000B700B4B00221A60084B05221A60C046064B12
S31520000B801A6880235B021340F9D0034B00221A60B7
S31520000B90C046BD4680BDC04610E000E014E000E03F
S31520000BA018E000E080B582B000AF786007E0FFF77C
S31520000BB0D7FFFFF7D5FFFFF7D3FFFFF7D1FF7B68FE
S31520000BC05A1E7A60002BF2D1C046BD4602B080BDC7
S31520000BD080B582B000AF78607B686421180000F091
S31520000BE067F803007B607B6801337B6004E0FA23AF
S31520000BF09B001800FFF7D6FF7B685A1E7A60002BF1
S31520000C00F5D1C046BD4602B080BD80B500AFFFF726
S31520000C10A7FFFFF7A5FFC046BD4680BD80B582B0C1
S31520000C2000AFFFF7CBFDFFF7FBFD01237B6008E05C
S31520000C307B6801220A211800FFF71EFE7B6801331C
S31520000C407B607B687F2BF3D901237B6008E07B6880
S31520000C50012219000A20FFF70FFE7B6801337B6013
S31520000C607B683F2BF3D90520FFF7B2FF01237B607A
S31520000C7008E07B6800220A211800FFF7FDFD7B684B
S31520000C8001337B607B687F2BF3D901237B6008E0EF
S31520000C907B68002219000A20FFF7EEFD7B680133EE
S31520000CA07B607B683F2BF3D9C046BD4602B080BD32
S31520000CB0002243088B4274D303098B425FD3030A75
S31520000CC08B4244D3030B8B4228D3030C8B420DD388
S31520000CD0FF22090212BA030C8B4202D31212090216
S31520000CE065D0030B8B4219D300E0090AC30B8B4254
S31520000CF001D3CB03C01A5241830B8B4201D38B0302
S31520000D00C01A5241430B8B4201D34B03C01A5241A6
S31520000D10030B8B4201D30B03C01A5241C30A8B42E9
S31520000D2001D3CB02C01A5241830A8B4201D38B02D4
S31520000D30C01A5241430A8B4201D34B02C01A524178
S31520000D40030A8B4201D30B02C01A5241CDD2C309EA
S31520000D508B4201D3CB01C01A524183098B4201D366
S31520000D608B01C01A524143098B4201D34B01C01A51
S31520000D70524103098B4201D30B01C01A5241C308C9
S31520000D808B4201D3CB00C01A524183088B4201D338
S31520000D908B00C01A524143088B4201D34B00C01A24
S31520000DA05241411A00D20146524110467047FFE790
S31520000DB001B5002000F006F802BDC0460029F7D094
S31520000DC076E770477047C0460C000000040000001C
S31520000DD004000000000100020100010101020103DC
S31520000DE002000201020202030301030200000000C6
S31520000DF0000000000000000000000000C80D0020D8
S31520000E0000000000000000000100000001000000BA
S31520000E10110A00206F0A0020CD0A0020F1090020C7
S31520000E20220300202A030020320300203A03002058
S31520000E30420300204A030020520300205A030020C8
S31520000E40620300206A030020720300207A03002038
S31520000E50820300208A030020920300209A030020A8
S31520000E60F6030020D6030020DE030020E603002040
S31520000E70EE0300200102030A0405060B0708090CED
S31520000E800E000F0DC2080020CC080020D608002036
S31520000E90E0080020EA080020F4080020FE080020D0
S30920000EA008090020F7
S70520000000DA
