S01700002E2F44656275672F7379735F7469636B2E73313901
S315200000000248854600F0F6F8FEE7C04600C001200B
S3152000001080B500AF0C4B00221A600C4B29221A60C7
S315200000200B4B00221A60084B05221A60C046064B6D
S315200000301A6880235B021340F9D0034B00221A6012
S31520000040C046BD4680BDC04610E000E014E000E09A
S3152000005018E000E080B582B000AF786007E0FFF7D7
S31520000060D7FFFFF7D5FFFFF7D3FFFFF7D1FF7B6859
S315200000705A1E7A60002BF2D1C046BD4602B080BD22
S3152000008080B582B000AF78607B686421180000F0EC
S31520000090D9F803007B607B6801337B6004E0FA2398
S315200000A09B001800FFF7D6FF7B685A1E7A60002B4C
S315200000B0F5D1C046BD4602B080BD80B500AFFFF782
S315200000C0A7FFFFF7A5FFC046BD4680BDEFF3008022
S315200000D07047C0461800EFF314807047C0461800DA
S315200000E080F300887047C04680F314887047C04666
S315200000F080B500AFFFF7EFFF02000223134318007D
S31520000100FFF7F2FFC046BD4680BD62B67047C046C7
S3152000011072B67047C04680B500AF094B00221A6000
S31520000120084B00221A60084BA7221A60074B0022B0
S315200001301A60044B07221A60C046BD4680BDC046E1
S315200001405C03002010E000E014E000E018E000E08E
S3152000015080B500AF0A4B00221A600A4B1B685A1E54
S31520000160084B1A60074B1B68002B02DDFFF7D3FFF5
S3152000017002E0054B01221A60C046BD4680BDC0463E
S3152000018010E000E0600300205C03002080B582B010
S3152000019000AF78607A68064B1A60054B1B68002B07
S315200001A002D0FFF7B8FF00E0C046BD4602B080BDD2
S315200001B06003002080B500AF074B084A1A60084B41
S315200001C0084A1A60084B094A1A60094B00221A602D
S315200001D0C046BD4680BDC046000C0240555555550B
S315200001E008ED00E000C001203CC0012051010020A4
S315200001F05C03002080B500AFFFF7DCFF0E4B00222A
S315200002001A70FA239B001800FFF7C0FF0A4BFF2243
S315200002101A700A4B1B68002B07D1094B1B78DBB2DF
S31520000220074ADB43DBB21370F3E7C046024B0022DA
S315200002301A70C046BD4680BD140C02405C030020E7
S31520000240150C0240002243088B4274D303098B42CB
S315200002505FD3030A8B4244D3030B8B4228D3030C70
S315200002608B420DD3FF22090212BA030C8B4202D312
S315200002701212090265D0030B8B4219D300E0090A3A
S31520000280C30B8B4201D3CB03C01A5241830B8B4243
S3152000029001D38B03C01A5241430B8B4201D34B032C
S315200002A0C01A5241030B8B4201D30B03C01A524191
S315200002B0C30A8B4201D3CB02C01A5241830A8B4216
S315200002C001D38B02C01A5241430A8B4201D34B02FF
S315200002D0C01A5241030A8B4201D30B02C01A524163
S315200002E0CDD2C3098B4201D3CB01C01A5241830917
S315200002F08B4201D38B01C01A524143098B4201D351
S315200003004B01C01A524103098B4201D30B01C01A7B
S315200003105241C3088B4201D3CB00C01A52418308F5
S315200003208B4201D38B00C01A524143088B4201D322
S315200003304B00C01A5241411A00D201465241104682
S315200003407047FFE701B5002000F006F802BDC04661
S315200003500029F7D076E770477047C04600000000B6
S309200003600000000073
S70520000000DA
