S02300002E2F44656275672F666C6970666C6F705F6972715F766563746F72732E733139F2
S315200000000248854600F046F9FEE7C04600C00120BA
S3152000001080B582B000AF164B1B68DAB2FB1D0121FA
S315200000200A401A70124B1B68012213401CD0104B39
S315200000301A680F4B01210A431A600E4B1B78DBB25C
S315200000400C4A10210B43DBB213700B4B1B78DBB22F
S315200000500133DAB2084B1A70064B1B78DBB2054A1D
S3152000006010218B43DBB21370C046BD4602B080BD63
S31520000070143C014014100240B002002080B582B02A
S3152000008000AF144B1B68DAB2FB1D02210A401A701E
S31520000090104B1B680222134018D00E4B1A680D4BCA
S315200000A002210A431A600C4B1B78DBB20A4A202134
S315200000B00B43DBB21370094B00221A70064B1B78D8
S315200000C0DBB2054A20218B43DBB21370C046BD4606
S315200000D002B080BD143C014014100240B002002042
S315200000E080B582B000AF164B1B68DAB2FB1D042127
S315200000F00A401A70124B1B68042213401CD0104B66
S315200001001A680F4B04210A431A600E4B1B78DBB288
S315200001100C4A40210B43DBB213700A4B1B78DBB22F
S31520000120084A40218B43DBB21370074B1B78DBB2A6
S31520000130054ADB43DBB21370C046BD4602B080BD24
S31520000140143C014014100240140C024080B582B0C9
S3152000015000AF0200FB1D1A70FB1D1B78092B2CD843
S315200001609A001A4BD3181B689F46194B3F221A70C8
S3152000017027E0174B06221A7023E0154B5B221A70D4
S315200001801FE0134B4F221A701BE0114B66221A7088
S3152000019017E00F4B6D221A7013E00D4B7D221A705B
S315200001A00FE00B4B07221A700BE0094B7F221A70C7
S315200001B007E0074B6F221A7003E0054B00221A70E6
S315200001C0C046C046BD4602B080BDC046B40200202F
S315200001D0150C024080B500AF1D4B1E4A1A601E4BFF
S315200001E0AA22D2011A801D4B1A681C4B120C12042B
S315200001F01A601A4B1A68194B19490A431A60194B87
S315200002001A68184B07210A431A60174B1A68164BAF
S3152000021007210A431A60154B1A68144B07218A4393
S315200002201A60134B134A1A60134B144A1A60144B64
S31520000230144A1A60144B154A1A60154B1A68144B47
S31520000240E02149000A431A60C046BD4680BDC0462B
S31520000250000C024055555555001002400838014003
S3152000026044040000003C0140083C01400C3C014095
S3152000027008ED00E000C001205CC001207D000020C8
S3152000028060C00120E100002058C00120110000209C
S3152000029000E100E080B500AFFFF79CFF034B1B7821
S315200002A0DBB21800FFF752FFF8E7C046B002002085
S315200002B0000000006A010020720100207A0100205F
S315200002C0820100208A010020920100209A0100204C
S311200002D0A2010020AA010020B20100209B
S70520000000DA
