S01600002E2F44656275672F6C616262325F332E73313916
S315200000000248854600F0C0F9FEE7C04600C0012040
S3152000001080B500AF0C4B00221A600C4B29221A60C7
S315200000200B4B00221A60084B05221A60C046064B6D
S315200000301A6880235B021340F9D0034B00221A6012
S31520000040C046BD4680BDC04610E000E014E000E09A
S3152000005018E000E080B582B000AF786007E0FFF7D7
S31520000060D7FFFFF7D5FFFFF7D3FFFFF7D1FF7B6859
S315200000705A1E7A60002BF2D1C046BD4602B080BD22
S3152000008080B582B000AF0200FB1D1A70402000F040
S3152000009029F8064AFB1D1B781370FFF7B9FF40208D
S315200000A000F038F8C046BD4602B080BD15100240AB
S315200000B080B582B000AF402000F014F8FFF7A8FF0B
S315200000C0FFF7A6FF064AFB1D12781A70402000F0A3
S315200000D021F8FB1D1B781800BD4602B080BDC04626
S315200000E01110024080B582B000AF0200FB1D1A70CD
S315200000F0074B1B78DAB2FB1D1B781343DBB2044A8D
S3152000010004210B43DBB21370C046BD4602B080BD4E
S315200001101410024080B582B000AF0200FB1D1A7099
S315200001200A4B1B78DBB25BB2FA1D127852B2D2436D
S3152000013052B204210A4352B213405AB2034BD2B2EE
S315200001401A70C046BD4602B080BDC046141002409B
S3152000015080B582B000AF0200FB1D1A700120FFF7A8
S31520000160D9FF0220FFF7D6FFFB1D1B781800FFF7EB
S3152000017087FFC046BD4602B080BD80B582B000AFC5
S315200001800200FB1D1A700120FFF7ACFF0220FFF7CB
S31520000190C1FFFB1D1B781800FFF772FFC046BD4646
S315200001A002B080BD90B583B000AF0E4B1A680D4BE0
S315200001B01204120C1A600120FFF7ACFF0220FFF791
S315200001C091FFFC1DFFF774FF03002370054B1A688F
S315200001D0044B05490A431A60FB1D1B781800BD46CF
S315200001E003B090BD001002400000555590B583B075
S315200001F000AF0E4B1A680D4B1204120C1A60012028
S31520000200FFF770FF0220FFF76DFFFC1DFFF750FF81
S3152000021003002370054B1A68044B05490A431A60EC
S31520000220FB1D1B781800BD4603B090BD0010024090
S315200002300000555580B582B000AF78607B68642198
S31520000240180000F0E5F803007B607B6801337B60D3
S3152000025004E0FA239B001800FFF7FCFE7B685A1E79
S315200002607A60002BF5D1C046BD4602B080BD80B570
S3152000027082B000AF0200FB1D1A70C046FFF792FF46
S3152000028003005BB2002BF9DB0820FFF7E3FEFB1D22
S315200002901B781800FFF75CFFC046BD4602B080BD44
S315200002A080B500AF3820FFF7E2FF2820FFF7D2FE07
S315200002B00C20FFF7DCFF2820FFF7CCFE0120FFF7FC
S315200002C0D6FF0220FFF7B6FF0620FFF7D0FF282033
S315200002D0FFF7C0FEC046BD4680BD80B582B000AFE8
S315200002E00200FB1D1A70C046FFF75CFF03001A00D0
S315200002F080231340802BF7D00820FFF7ABFEFB1D91
S315200003001B781800FFF739FF2820FFF7A3FEC04609
S31520000310BD4602B080BD80B584B000AF786039603C
S315200003200F217B1800221A707B68DAB27B18013AFB
S315200003301A703B68022B05D10F22BB18BA18127807
S3152000034040321A700F23FB181B7880225242134327
S31520000350DBB21800FFF7FCFEC046BD4604B080BDE8
S3152000036080B500AF054B18221A6028488047044BF9
S31520000370044A1A60C046BD4680BDC0463038024099
S315200003800010024055555555B0B58AB000AFFFF75D
S31520000390E7FF14243B191B4A23CA23C312881A8059
S315200003A03B00194A23CA23C31168196012791A71AE
S315200003B0FFF776FF01210120FFF7ADFF3B197B6296
S315200003C006E07B6A5A1C7A621B781800FFF785FFC5
S315200003D07B6A1B78002BF4D102210120FFF79BFFBB
S315200003E03B007B6206E07B6A5A1C7A621B78180007
S315200003F0FFF773FF7B6A1B78002BF4D1C046BD46FE
S315200004000AB0B0BD280500203805002009020008E2
S31520000410002243088B4274D303098B425FD3030A1D
S315200004208B4244D3030B8B4228D3030C8B420DD330
S31520000430FF22090212BA030C8B4202D312120902BE
S3152000044065D0030B8B4219D300E0090AC30B8B42FC
S3152000045001D3CB03C01A5241830B8B4201D38B03AA
S31520000460C01A5241430B8B4201D34B03C01A52414F
S31520000470030B8B4201D30B03C01A5241C30A8B4292
S3152000048001D3CB02C01A5241830A8B4201D38B027D
S31520000490C01A5241430A8B4201D34B02C01A524121
S315200004A0030A8B4201D30B02C01A5241CDD2C30993
S315200004B08B4201D3CB01C01A524183098B4201D30F
S315200004C08B01C01A524143098B4201D34B01C01AFA
S315200004D0524103098B4201D30B01C01A5241C30872
S315200004E08B4201D3CB00C01A524183088B4201D3E1
S315200004F08B00C01A524143088B4201D34B00C01ACD
S315200005005241411A00D20146524110467047FFE738
S3152000051001B5002000F006F802BDC0460029F7D03C
S3152000052076E770477047C046416C66616E756D65AB
S315200005307269736B2000000020446973706C6179C6
S31120000540202D207465737420000000003C
S70520000000DA
