S01F00002E2F44656275672F666C6970666C6F705F6972715F61636B2E733139CD
S315200000000248854600F00AF9FEE7C04600C00120F6
S3152000001080B582B000AF314B1B680822134059D0FF
S315200000202E4B1A682D4B08210A431A602C4AFB1DB9
S3152000003012781A70FB1D1B780122134016D0294B0B
S315200000401B78DBB2274A10210B43DBB21370264BF9
S315200000501B78DBB20133DAB2234B1A70214B1B78A3
S31520000060DBB2204A10218B43DBB21370FB1D1B78B9
S315200000700222134012D01B4B1B78DBB2194A2021D7
S315200000800B43DBB21370184B00221A70154B1B78EA
S31520000090DBB2144A20218B43DBB21370FB1D1B7885
S315200000A00422134016D00F4B1B78DBB20D4A402199
S315200000B00B43DBB213700D4B1B78DBB20B4ADB43D1
S315200000C0DBB21370074B1B78DBB2064A40218B4309
S315200000D0DBB21370C046BD4602B080BD143C014061
S315200000E0101002401410024038020020140C024066
S315200000F080B582B000AF0200FB1D1A70FB1D1B7875
S31520000100092B2CD89A001A4BD3181B689F46194BDB
S315200001103F221A7027E0174B06221A7023E0154B50
S315200001205B221A701FE0134B4F221A701BE0114BF3
S3152000013066221A7017E00F4B6D221A7013E00D4BD2
S315200001407D221A700FE00B4B07221A700BE0094B29
S315200001507F221A7007E0074B6F221A7003E0054BC7
S3152000016000221A70C046C046BD4602B080BDC046B9
S315200001703C020020150C024080B500AF1A4B1B4AEA
S315200001801A601B4BAA22D2011A801A4B1A68194BE5
S3152000019019490A401A60174B1A68164B8021C90163
S315200001A00A431A60154B1A68144B08210A431A6031
S315200001B0134B1A68124B08218A431A60114B1A688E
S315200001C0104B08210A431A600F4B104A1A60104B35
S315200001D0104A1A60104B1A680F4B802189000A4377
S315200001E01A60C046BD4680BD000C02405555555587
S315200001F00010024008380140FF0FFFFF003C01407D
S31520000200083C01400C3C014008ED00E000C0012004
S3152000021064C001201100002000E100E080B500AF9D
S31520000220FFF7AAFF034B1B78DBB21800FFF760FF2E
S31520000230F8E7C04638020020000000000E0100202A
S31520000240160100201E010020260100202E0100207C
S31520000250360100203E010020460100204E010020EC
S3092000026056010020FD
S70520000000DA
