S01500002E2F44656275672F315F47414D452E733139C2
S315200000000248854600F02AFCFEE7C04600C00120D3
S3152000001080B582B000AF0200FB1D1A70402000F0B0
S3152000002029F8064AFB1D1B78137000F019FF4020A3
S3152000003000F038F8C046BD4602B080BD151002401B
S3152000004080B582B000AF402000F014F800F008FF21
S3152000005000F006FF064AFB1D12781A70402000F0B9
S3152000006021F8FB1D1B781800BD4602B080BDC04696
S315200000701110024080B582B000AF0200FB1D1A703D
S31520000080074B1B78DAB2FB1D1B781343DBB2044AFD
S3152000009004210B43DBB21370C046BD4602B080BDBF
S315200000A01410024080B582B000AF0200FB1D1A700A
S315200000B00A4B1B78DBB25BB2FA1D127852B2D243DE
S315200000C052B204210A4352B213405AB2034BD2B25F
S315200000D01A70C046BD4602B080BDC046141002400C
S315200000E080B582B000AF0200FB1D1A700120FFF719
S315200000F0D9FF0220FFF7D6FFFB1D1B781800FFF75C
S3152000010087FFC046BD4602B080BD80B582B000AF35
S315200001100200FB1D1A700120FFF7ACFF0220FFF73B
S31520000120C1FFFB1D1B781800FFF772FFC046BD46B6
S3152000013002B080BD90B583B000AF0E4B1A680D4B50
S315200001401204120C1A600120FFF7ACFF0220FFF701
S3152000015091FFFC1DFFF774FF03002370054B1A68FF
S31520000160044B05490A431A60FB1D1B781800BD463F
S3152000017003B090BD001002400000555590B583B0E5
S3152000018000AF0E4B1A680D4B1204120C1A60012098
S31520000190FFF770FF0220FFF76DFFFC1DFFF750FFF2
S315200001A003002370054B1A68044B05490A431A605D
S315200001B0FB1D1B781800BD4603B090BD0010024001
S315200001C00000555580B582B000AF0200FB1D1A70A5
S315200001D0C046FFF7AFFF03005BB2002BF9DB082018
S315200001E000F060FEFB1D1B781800FFF779FFC04664
S315200001F0BD4602B080BD80B500AF3820FFF7E2FFD4
S31520000200282000F04FFE0C20FFF7DCFF282000F00E
S3152000021049FE0120FFF7D6FF022000F059FE0620F6
S31520000220FFF7D0FF282000F03DFEC046BD4680BD2A
S3152000023080B582B000AF0200FB1D1A70C046FFF7E2
S3152000024079FF03001A0080231340802BF7D0082063
S3152000025000F028FEFB1D1B781800FFF756FF28200C
S3152000026000F020FEC046BD4602B080BD80B584B0F9
S3152000027000AF786039600F217B1800221A707B68E6
S31520000280DAB27B18013A1A703B68022B05D10F228D
S31520000290BB18BA18127840321A700F23FB181B7835
S315200002A0802252421343DBB21800FFF719FFC046E3
S315200002B0BD4604B080BDC04680B582B000AF020006
S315200002C0FB1D1A70094B1B78DBB25AB2FB1D1B783B
S315200002D05BB204218B435BB213435AB2034BD2B2B7
S315200002E01A70C046BD4602B080BDC04614100240FA
S315200002F080B582B000AF0200FB1D1A700A4B1B7836
S31520000300DBB25BB2FA1D127804210A43D2B252B292
S31520000310D24352B213405AB2034BD2B21A70C046DD
S31520000320BD4602B080BDC0461410024080B582B0E2
S3152000033000AF0200FB1D1A70FB1D1B78082B0CD08A
S3152000034002DC002B05D01AE0102B0DD0182B12D072
S3152000035015E01820FFF7CCFF11E00820FFF7ACFFCF
S315200003601020FFF7C5FF0AE01020FFF7A5FF0820A1
S31520000370FFF7BEFF03E01820FFF79EFFC046C046EA
S31520000380BD4602B080BD80B500AF4020FFF7B0FF6C
S315200003900F4B104A1A600120FFF7AAFF0220FFF731
S315200003A08BFF05E04020FFF787FF4020FFF7A0FFE7
S315200003B0094B1B78DBB25BB2002BF3DB4020FFF747
S315200003C07BFF034B054A1A60C046BD4680BDC0462A
S315200003D00010024055550000111002405555555544
S315200003E080B584B000AF0200FB1D1A704020FFF7D5
S315200003F07FFF194B194A1A600320FFF75DFFFB1D8B
S315200004001B781800FFF792FF4020FFF755FF144A8C
S315200004100F23FB1812781A704020FFF769FF0E4B46
S31520000420104A1A60FB1D1B78082B04D10820FFF701
S315200004307DFFFFF7A8FFFB1D1B78102B04D1102092
S31520000440FFF774FFFFF79FFF0F23FB181B78180099
S31520000450BD4604B080BDC046001002405555000080
S31520000460111002405555555580B582B000AF020097
S31520000470FB1D1A70BB1D0A1C1A70184AFB1D1B781F
S315200004801370BB1D1B781800FFF750FF4020FFF7A5
S3152000049013FF4020FFF72CFFBB1D1B7808221340BB
S315200004A004D00820FFF742FFFFF76DFFBB1D1B7826
S315200004B01022134004D01020FFF738FFFFF763FF08
S315200004C0064B00221A704020FFF7F6FE0020FFF7A9
S315200004D02DFFC046BD4602B080BDC0461510024065
S315200004E080B582B000AF0200FB1D1A70BB1D0A1C2E
S315200004F01A704020FFF7FCFEBB1D1B781800FFF783
S3152000050015FF0320FFF7F4FEBB1D1A78FB1D1B7891
S3152000051011001800FFF7A8FFC046BD4602B080BDF7
S3152000052080B582B000AF0200FB1D1A70BB1D0A1CED
S315200005301A704020FFF7DCFEBB1D1B781800FFF762
S31520000540F5FE0120FFF7B8FE0220FFF7D1FEBB1D06
S315200005501A78FB1D1B7811001800FFF785FFC0468F
S31520000560BD4602B080BD80B582B000AF0200FB1D43
S315200005701A70FB1D1B781800FFF732FFFB1D1B7836
S315200005801800FFF72DFF03001800BD4602B080BDFE
S3152000059080B500AF124B134A1A604020FFF78CFE3D
S315200005A07820FFF7A5FE2020FFF786FE18213E20A3
S315200005B0FFF796FF18213F20FFF792FF1821C02052
S315200005C0FFF78EFF18214020FFF78AFF1821B82059
S315200005D0FFF786FF0020FFF7A9FEC046BD4680BD77
S315200005E0001002405555555580B582B000AF002306
S315200005F07B601EE07B685BB24822524213435BB2AB
S31520000600DBB218211800FFF76BFF18214020FFF7F7
S3152000061067FF00233B6006E018210020FFF780FFDC
S315200006203B6801333B603B683F2BF5DD7B6801333C
S315200006307B607B68072BDDDDC046BD4602B080BDF2
S3152000064080B584B000AF786039600023FB603B68DA
S31520000650002B32D03B68402B2FD87B68002B2CD028
S315200006607B68802B29D83B68013B07221340012257
S315200006709A400B23FB181A707B68402B05D98023E0
S315200006809B00FB607B68413B7B603B68013BDB0852
S315200006909A017B68D218FB68D318FB60094AFB686D
S315200006A0D3181A780B23FB181B781343D9B2054AA3
S315200006B0FB68D3180A1C1A7000E0C046BD4604B079
S315200006C080BDC0464412002080B584B000AF002310
S315200006D0BB600D23FB1800221A704FE00D23FB1878
S315200006E01B78002B01D1082200E01022FB1D1A7076
S315200006F00E23FB1800221A7035E00E23FB181B78F8
S31520000700482252421343DAB2FB1D1B78190010000F
S31520000710FFF7E6FEFB1D1B7819004020FFF7E0FEE1
S315200007200F23FB1800221A7012E0194ABB68D3184F
S315200007301A78FB1D1B7819001000FFF7F1FE0F2118
S315200007407B181A787B1801321A70BB680133BB609C
S315200007500F23FB181B783F2BE7D90E217B181A781D
S315200007607B1801321A700E23FB181B78072BC4D96D
S315200007700D217B181A787B1801321A700D23FB186D
S315200007801B78012BAAD9C046BD4604B080BDC04601
S315200007904412002080B582B000AF00237B6007E0C2
S315200007A0074A7B68D31800221A707B6801337B6066
S315200007B07B68044A9342F3DDC046BD4602B080BD45
S315200007C044120020FF030000B0B588B000AF10240B
S315200007D03B19194A03CA03C312781A703B00174AF9
S315200007E023CA23C312781A7001210120FFF73EFD88
S315200007F03B19FB6106E0FB695A1CFA611B7818005D
S31520000800FFF716FDFB691B78002BF4D1022101208E
S31520000810FFF72CFD3B00FB6106E0FB695A1CFA61E1
S315200008201B781800FFF704FDFB691B78002BF4D119
S31520000830C046BD4608B0B0BDA8180020B418002098
S3152000084080B500AF034B044A1A60FFF7D4FCC046BC
S31520000850BD4680BD001002405555555590B59BB0FC
S3152000086000AF78603960FFF7EBFF4E4BBB654E4B10
S315200008707B654E4B3B654E4BFB644E4BBB644E4BF0
S315200008807B644E4B3B644E4BFB634E4BBB634E4BE4
S315200008907B634E4B3B6308217B183A6D1A607B18AD
S315200008A0FA6C5A607B18BA6C9A607B187A6CDA609C
S315200008B07B183A6C1A617B18FA6B5A617B18BA6BF3
S315200008C09A617B187A6BDA617B183A6B1A62FFF7AA
S315200008D05FFE0923FB6200237B6600233B662DE037
S315200008E008217B183A6E9200D3581B6A0C007A189E
S315200008F0396E89008858796E0022984721007B1826
S315200009003A6E9200D358DB690C007A18396E89004A
S315200009108A581000984721007B183A6E9200D358C7
S315200009201B6A7A18396E8900885800220021984758
S315200009303B6E01333B667B6E0A337B66FB6A013B6B
S315200009403A6E9A42CCDDFFF725FF7B6DDB697A6D27
S3152000095010009847BB6DDB69BA6D10009847BA6DD9
S315200009607B6D1100180000F04AFA0023FB650EE0AB
S3152000097008217B18FA6D9200D3585B697A18F96DB5
S3152000098089008A5810009847FB6D0133FB65FB6A86
S31520000990013BFA6D9A42EBDDFFF796FEFFF724FE48
S315200009A0D1E7C04684180020601800201C170020BC
S315200009B0401700206417002088170020AC1700205D
S315200009C0D0170020F4170020181800203C1800200B
S315200009D080B584B000AFF860B9607A60FB68BA6809
S315200009E05A60FB687A689A60C046BD4604B080BDEE
S315200009F080B584B000AFF860B9607A60FB68BA68E9
S31520000A005A60FB687A689A60C046BD4604B080BDCD
S31520000A1080B584B000AF78600023FB601CE07B6863
S31520000A20DA687B681968FB6804335B00CB180433EB
S31520000A301B78D31818007B681A697B681968FB68CD
S31520000A4004335B00CB1805331B78D3181900FFF746
S31520000A50F7FDFB680133FB607B681B681B68FA683F
S31520000A609A42DCDDC046BD4604B080BD80B58AB062
S31520000A7000AFF860B9607A60FB681B7D07221340DF
S31520000A80DBB2002B05D1FB681B7DDB08DBB2BB612B
S31520000A9005E0FB681B7DDB08DBB20133BB6100236D
S31520000AA07B6254E000233B624AE0FB689B697A6ADA
S31520000AB0B96951433A6A8A189A181323FB1812788F
S31520000AC01A700023FB6135E000237B6129E01323A4
S31520000AD0FB181A78FB691A411300012213401DD016
S31520000AE03B6ADA00FB69D218FB6819687B6A043313
S31520000AF05B00CB1804331B78D31801331800FB682E
S31520000B001A687B6A04335B00D31805331B781A00F6
S31520000B107B6AD31801331900FFF792FD7B690133F5
S31520000B207B61FB681B681B687A699A42CFDDFB698B
S31520000B300133FB61FB69072BC6DD3B6A01333B6250
S31520000B403A6ABB699A42B0DB7B6A01337B62FB68F7
S31520000B505B7D1A007B6A9342A4DBC046BD460AB081
S31520000B6080BD80B584B000AF78600023FB601CE0B8
S31520000B707B68DA687B681968FB6804335B00CB18EE
S31520000B8004331B78D31818007B681A697B681968A8
S31520000B90FB6804335B00CB1805331B78D318190088
S31520000BA0FFF74EFDFB680133FB607B681B681B6803
S31520000BB0FA689A42DCDDC046BD4604B080BD80B5E9
S31520000BC082B000AF7860C046BD4602B080BD90B509
S31520000BD083B000AF78607B68DB68002B09DC7B681C
S31520000BE01C6A7B685B6859427B689A687B68180038
S31520000BF0A0477B68DB68802B09DD7B681C6A7B68E5
S31520000C005B6859427B689A687B681800A0477B68B6
S31520000C101B69002B09DC7B681C6A7B6859687B682A
S31520000C209B685A427B681800A0477B681B69402B4B
S31520000C3009DD7B681C6A7B6859687B689B685A4219
S31520000C407B681800A0477B68DA687B685B68D218E7
S31520000C507B68DA607B681A697B689B68D2187B6838
S31520000C601A617B685B697A6810009847C046BD4662
S31520000C7003B090BD90B583B000AF78607B68DB6829
S31520000C80002B09DC7B689C6A7B685B6859427B6821
S31520000C909A687B681800A0477B68DB68802B09DD93
S31520000CA07B689C6A7B685B6859427B689A687B682C
S31520000CB01800A0477B681B69002B09DC7B689C6AAF
S31520000CC07B6859687B689B685A427B681800A047F6
S31520000CD07B681B69402B09DD7B689C6A7B685968A9
S31520000CE07B689B685A427B681800A0477B68DA6855
S31520000CF07B685B68D2187B68DA607B681A697B68D8
S31520000D009B68D2187B681A617B68DC697B68D96826
S31520000D107B681A697B681800A047C046BD4603B0A9
S31520000D2090BD90B583B000AF78607B68DB68002B00
S31520000D3013DC7B685B68002B06DA7B681B6A7868A5
S31520000D4000220021984708E07B681C6A7B68596866
S31520000D507B689A687B681800A0477B68DA687B689E
S31520000D601B685B68D318802B13DD7B685B68002BC0
S31520000D7006DB7B681B6A786800220021984708E01A
S31520000D807B681C6A7B6859687B689A687B68180050
S31520000D90A0477B681B69002B09DC7B681C6A7B6883
S31520000DA059687B689B685A427B681800A0477B6815
S31520000DB01A697B681B689B68D318402B08DD7B6803
S31520000DC01C6A7B6859687B689A687B681800A0470C
S31520000DD07B68DA687B685B68D2187B68DA607B6838
S31520000DE01A697B689B68D2187B681A617B685B6985
S31520000DF07A6810009847C046BD4603B090BD90B5AE
S31520000E0083B000AF786039607B681A697B681B689D
S31520000E109B68D2183B681B699A421DDB7B68DA689F
S31520000E207B681B685B68D2183B68DB689A4213DBD9
S31520000E307B68DA683B68D9683B681B685B68CB18B7
S31520000E409A4209DC7B681C6A7B6859687B689B68C8
S31520000E505A427B681800A047C046BD4603B090BDE5
S31520000E6080B500AF0C4B00221A600C4B29221A6069
S31520000E700B4B00221A60084B05221A60C046064B0F
S31520000E801A6880235B021340F9D0034B00221A60B4
S31520000E90C046BD4680BDC04610E000E014E000E03C
S31520000EA018E000E080B582B000AF786007E0FFF779
S31520000EB0D7FFFFF7D5FFFFF7D3FFFFF7D1FF7B68FB
S31520000EC05A1E7A60002BF2D1C046BD4602B080BDC4
S31520000ED080B582B000AF78607B686421180000F08E
S31520000EE025F903007B607B6801337B6004E0FA23ED
S31520000EF09B001800FFF7D6FF7B685A1E7A60002BEE
S31520000F00F5D1C046BD4602B080BD80B500AFFFF723
S31520000F10A7FFFFF7A5FFC046BD4680BD80B500AF41
S31520000F200C4B1B680B4B00221A600A4B1A68094BA4
S31520000F3009490A431A60094A084B128892B21A8054
S31520000F40074B1A68064BAA2109040A431A60C046B1
S31520000F50BD4680BD000C024055550055040C02408C
S31520000F600C0C024080B582B000AF0200FB1D1A7047
S31520000F70FB1D1B780F2B44D89A00264BD3181B68D1
S31520000F809F46254B3F221A703FE0234B06221A70BC
S31520000F903BE0214B5B221A7037E01F4B4F221A7021
S31520000FA033E01D4B66221A702FE01B4B6D221A7000
S31520000FB02BE0194B7D221A7027E0174B07221A7057
S31520000FC023E0154B7F221A701FE0134B6F221A70F5
S31520000FD01BE0114B77221A7017E00F4B7C221A70F8
S31520000FE013E00D4B39221A700FE00B4B3F221A707B
S31520000FF00BE0094B79221A7007E0074B71221A7011
S3152000100003E0054B00221A70C046C046BD4602B01A
S3152000101080BDC046C4180020140C024080B582B0A2
S3152000102000AF78607B68042B19D87B689A000E4B3A
S31520001030D3181B689F460D4B10221A700FE00B4BDE
S3152000104020221A700BE0094B40221A7007E0074B4A
S3152000105080221A7003E0054B00221A70C046C04653
S31520001060BD4602B080BDC04604190020150C0240C2
S3152000107080B582B000AF124AFB1D12781A70FB1D94
S315200010801B780822134001D0042315E0FB1D1B7892
S315200010900422134001D003230EE0FB1D1B780222FD
S315200010A0134001D0022307E0FB1D1B7801221340C9
S315200010B001D0012300E000231800BD4602B080BD08
S315200010C0110C024090B587B000AF3B00164A13CAF8
S315200010D013C312681A6001237B6119E07B6918002B
S315200010E0FFF79CFFFFF7C4FF03003B613B69002B22
S315200010F00BD00020FFF792FF7B69013B9A003B69EA
S31520001100013BD3183A00D35C09E07B6901337B614C
S315200011107B69042BE2DD0020FFF780FFFF23180008
S31520001120BD4607B090BDC0461819002000224308CE
S315200011308B4274D303098B425FD3030A8B4244D379
S31520001140030B8B4228D3030C8B420DD3FF220902BB
S3152000115012BA030C8B4202D31212090265D0030B7A
S315200011608B4219D300E0090AC30B8B4201D3CB0370
S31520001170C01A5241830B8B4201D38B03C01A5241B2
S31520001180430B8B4201D34B03C01A5241030B8B42B4
S3152000119001D30B03C01A5241C30A8B4201D3CB029F
S315200011A0C01A5241830A8B4201D38B02C01A524184
S315200011B0430A8B4201D34B02C01A5241030A8B4287
S315200011C001D30B02C01A5241CDD2C3098B4201D39F
S315200011D0CB01C01A524183098B4201D38B01C01A1D
S315200011E0524143098B4201D34B01C01A5241030994
S315200011F08B4201D30B01C01A5241C3088B4201D343
S31520001200CB00C01A524183088B4201D38B00C01AEF
S31520001210524143088B4201D34B00C01A5241411A16
S3152000122000D20146524110467047FFE701B5002023
S3152000123000F006F802BDC0460029F7D076E77047D1
S315200012407047C046000000000000000000000000BB
S315200012500000000000000000000000000000000068
S315200012600000000000000000000000000000000058
S315200012700000000000000000000000000000000048
S315200012800000000000000000000000000000000038
S3152000164000000000000100000100C00700600C003F
S315200016502008002008003018001830000820000854
S3152000166020000C6000444400F45F001C7000082039
S315200016700000000000000000000000000000000044
S315200016801000000005000000050000000000010019
S31520001690020003000400000104010002040200030A
S315200016A004030004010402040304040400000000EF
S315200016B0000000000C0000000400000004000000F0
S315200016C000010002010001010102010302000201E2
S315200016D002020203030103020000000000000000D2
S315200016E00000000000000000280000001400000098
S315200016F002000000000001000200030004000500B3
S3152000170006000700080009000A000B000C000D0067
S315200017100E000F001000110012001300801600208A
S315200017200000000000000000010000000100000091
S31520001730110A0020630B0020CF0B0020D1090020C6
S3152000174080160020000000000000000001000000BC
S3152000175001000000110A0020630B0020CF0B00209F
S31520001760D1090020801600200000000000000000A3
S315200017700100000001000000110A0020630B002078
S31520001780CF0B0020D1090020801600200000000089
S31520001790000000000100000001000000110A0020E6
S315200017A0630B0020CF0B0020D109002080160020DB
S315200017B00000000000000000010000000100000001
S315200017C0110A0020630B0020CF0B0020D109002036
S315200017D0801600200000000000000000010000002C
S315200017E001000000110A0020630B0020CF0B00200F
S315200017F0D109002080160020000000000000000013
S315200018000100000001000000110A0020630B0020E7
S31520001810CF0B0020D10900208016002000000000F8
S31520001820000000000100000001000000110A002055
S31520001830630B0020CF0B0020D1090020801600204A
S315200018400000000000000000010000000100000070
S31520001850110A0020630B0020CF0B0020D1090020A5
S31520001860B4160020FDFFFFFF030000002800000043
S315200018702D000000110A0020630B0020CF0B002052
S31520001880D1090020E816002000000000000000001A
S315200018903200000037000000110A0020630B0020F0
S315200018A0230D0020D109002057656C636F6D6520DC
S315200018B000000000746F207468652067616D6521E3
S315200018C000000000820F00208A0F0020920F0020C7
S315200018D09A0F0020A20F0020AA0F0020B20F00208E
S315200018E0BA0F0020C20F0020CA0F0020D20F0020FE
S315200018F0DA0F0020E20F0020EA0F0020F20F00206E
S31520001900FA0F002056100020361000203E1000202E
S31520001910461000204E1000200102030A0405060B83
S30D200019200708090C0E000F0D4B
S70520000000DA
