S01500002E2F44656275672F315F47414D452E733139C2
S315200000000248854600F0FCFAFEE7C04600C0012003
S3152000001080B500AF0C4B00221A600C4B29221A60C7
S315200000200B4B00221A60084B05221A60C046064B6D
S315200000301A6880235B021340F9D0034B00221A6012
S31520000040C046BD4680BDC04610E000E014E000E09A
S3152000005018E000E080B582B000AF786007E0FFF7D7
S31520000060D7FFFFF7D5FFFFF7D3FFFFF7D1FF7B6859
S315200000705A1E7A60002BF2D1C046BD4602B080BD22
S3152000008080B582B000AF78607B686421180000F0EC
S3152000009093FB03007B607B6801337B6004E0FA23DB
S315200000A09B001800FFF7D6FF7B685A1E7A60002B4C
S315200000B0F5D1C046BD4602B080BD80B500AFFFF782
S315200000C0A7FFFFF7A5FFC046BD4680BD80B582B01D
S315200000D000AF0200FB1D1A70094B1B78DBB25AB227
S315200000E0FB1D1B785BB204218B435BB213435AB2D0
S315200000F0034BD2B21A70C046BD4602B080BDC04680
S315200001001410024080B582B000AF0200FB1D1A70A9
S315200001100A4B1B78DBB25BB2FA1D127804210A4324
S31520000120D2B252B2D24352B213405AB2034BD2B2D7
S315200001301A70C046BD4602B080BDC04614100240AB
S3152000014080B582B000AF0200FB1D1A70FB1D1B7824
S31520000150082B0CD002DC002B05D01AE0102B0DD07A
S31520000160182B12D015E01820FFF7CCFF11E008203D
S31520000170FFF7ACFF1020FFF7C5FF0AE01020FFF7BE
S31520000180A5FF0820FFF7BEFF03E01820FFF79EFF1C
S31520000190C046C046BD4602B080BD80B500AF4020F7
S315200001A0FFF7B0FF124B134A1A600120FFF7AAFF90
S315200001B00220FFF78BFFFFF780FF09E04020FFF7C3
S315200001C085FFFFF77AFF4020FFF79CFFFFF775FFBB
S315200001D0094B1B78DBB25BB2002BEFDB4020FFF72D
S315200001E075FF034B054A1A60C046BD4680BDC04612
S315200001F00010024055550000111002405555555526
S3152000020080B584B000AF0200FB1D1A704020FFF7B6
S3152000021079FF1A4B1A4A1A600320FFF757FFFB1D76
S315200002201B781800FFF78CFFFFF747FF4020FFF7EA
S315200002304DFF144A0F23FB1812781A704020FFF73F
S3152000024061FF0E4B104A1A60FB1D1B78082B04D148
S315200002500820FFF775FFFFF7A0FFFB1D1B78102B6B
S3152000026004D11020FFF76CFFFFF797FF0F23FB1831
S315200002701B781800BD4604B080BDC0460010024061
S3152000028055550000111002405555555580B582B080
S3152000029000AF0200FB1D1A70BB1D0A1C1A701A4AF9
S315200002A0FB1D1B781370BB1D1B781800FFF748FF3A
S315200002B0FFF703FF4020FFF709FFFFF7FEFE402070
S315200002C0FFF720FFBB1D1B780822134004D008200F
S315200002D0FFF736FFFFF761FFBB1D1B781022134087
S315200002E004D01020FFF72CFFFFF757FF064B002204
S315200002F01A704020FFF7EAFE0020FFF721FFC046D4
S31520000300BD4602B080BDC0461510024080B582B001
S3152000031000AF0200FB1D1A70BB1D0A1C1A7040207C
S31520000320FFF7F0FEBB1D1B781800FFF709FF03201F
S31520000330FFF7E8FEBB1D1A78FB1D1B78110018007D
S31520000340FFF7A4FFC046BD4602B080BD80B582B08F
S3152000035000AF0200FB1D1A70BB1D0A1C1A7040203C
S31520000360FFF7D0FEBB1D1B781800FFF7E9FE012022
S31520000370FFF7ACFE0220FFF7C5FEBB1D1A78FB1D5A
S315200003801B7811001800FFF781FFC046BD4602B05A
S3152000039080BD80B582B000AF0200FB1D1A70FB1D28
S315200003A01B781800FFF72CFFFB1D1B781800FFF7A2
S315200003B027FF03001800BD4602B080BD80B500AF00
S315200003C0154B164A1A604020FFF780FE0A20FFF7D9
S315200003D041FE7820FFF796FE1E20FFF751FE2020D3
S315200003E0FFF774FE18213E20FFF790FF18213F20CB
S315200003F0FFF78CFF1821C020FFF788FF1821402027
S31520000400FFF784FF1821B820FFF780FF0020FFF7B1
S3152000041097FEC046BD4680BD001002405555555535
S3152000042080B582B000AF00237B601EE07B685BB2A4
S315200004304822524213435BB2DBB218211800FFF761
S3152000044065FF18214020FFF761FF00233B6006E08F
S3152000045018210020FFF77AFF3B6801333B603B6899
S315200004603F2BF5DD7B6801337B607B68072BDDDD69
S31520000470C046BD4602B080BD80B584B000AF78606E
S3152000048039600023FB603B68002B32D03B68402B51
S315200004902FD87B68002B2CD07B68802B29D83B68F3
S315200004A0013B0722134001229A400B23FB181A70A6
S315200004B07B68402B05D980239B00FB607B68413BF2
S315200004C07B603B68013BDB089A017B68D218FB689E
S315200004D0D318FB60094AFB68D3181A780B23FB183C
S315200004E01B781343D9B2054AFB68D3180A1C1A7025
S315200004F000E0C046BD4604B080BDC046D0080020FE
S3152000050080B584B000AF0023BB600D23FB1800220A
S315200005101A704FE00D23FB181B78002B01D10822FF
S3152000052000E01022FB1D1A700E23FB1800221A7001
S3152000053035E00E23FB181B78482252421343DAB2C9
S31520000540FB1D1B7819001000FFF7E0FEFB1D1B7832
S3152000055019004020FFF7DAFE0F23FB1800221A703D
S3152000056012E0194ABB68D3181A78FB1D1B781900AC
S315200005701000FFF7EBFE0F217B181A787B1801324B
S315200005801A70BB680133BB600F23FB181B783F2B07
S31520000590E7D90E217B181A787B1801321A700E23A0
S315200005A0FB181B78072BC4D90D217B181A787B18CA
S315200005B001321A700D23FB181B78012BAAD9C046CD
S315200005C0BD4604B080BDC046D008002080B582B0AC
S315200005D000AF00237B6007E0074A7B68D318002220
S315200005E01A707B6801337B607B68044A9342F3DD93
S315200005F0C046BD4602B080BDD0080020FF030000E3
S3152000060080B584B000AF78603960084BFB60FFF797
S31520000610D5FEFB681B6AF868012204219847FB680F
S31520000620DB69FA6810009847F9E7C046040D0020F8
S3152000063080B584B000AFF860B9607A60FB68BA68AC
S315200006405A60FB687A689A60C046BD4604B080BD91
S3152000065080B584B000AF78600023FB601CE07B6827
S31520000660DA687B681968FB6804335B00CB180433AF
S315200006701B78D31818007B681A697B681968FB6891
S3152000068004335B00CB1805331B78D3181900FFF70A
S31520000690F3FEFB680133FB607B681B681B68FA6806
S315200006A09A42DCDDC046BD4604B080BD80B584B02C
S315200006B000AF78600023FB601CE07B68DA687B680B
S315200006C01968FB6804335B00CB1804331B78D318F6
S315200006D018007B681A697B681968FB6804335B001D
S315200006E0CB1805331B78D3181900FFF7C5FEFB6816
S315200006F00133FB607B681B681B68FA689A42DCDD65
S31520000700C046BD4604B080BD90B583B000AF7860CA
S315200007107B689B697A68100098477B68DB68002BAA
S3152000072009DC7B681C6A7B685B6859427B689A682F
S315200007307B681800A0477B68DB68802B09DD7B6817
S315200007401C6A7B685B6859427B689A687B681800DC
S31520000750A0477B681B69002B09DC7B681C6A7B68C9
S3152000076059687B689B685A427B681800A0477B685B
S315200007701B69402B09DD7B681C6A7B6859687B688E
S315200007809B685A427B681800A0477B68DA687B68BA
S315200007905B68D2187B68DA607B681A697B689B681D
S315200007A0D2187B681A617B685B697A681000984763
S315200007B0C046BD4603B090BD002243088B4274D389
S315200007C003098B425FD3030A8B4244D3030B8B422C
S315200007D028D3030C8B420DD3FF22090212BA030C35
S315200007E08B4202D31212090265D0030B8B4219D316
S315200007F000E0090AC30B8B4201D3CB03C01A524136
S31520000800830B8B4201D38B03C01A5241430B8B427D
S3152000081001D34B03C01A5241030B8B4201D30B0366
S31520000820C01A5241C30A8B4201D3CB02C01A52418D
S31520000830830A8B4201D38B02C01A5241430A8B4250
S3152000084001D34B02C01A5241030A8B4201D30B0239
S31520000850C01A5241CDD2C3098B4201D3CB01C01A53
S31520000860524183098B4201D38B01C01A524143095D
S315200008708B4201D34B01C01A524103098B4201D34B
S315200008800B01C01A5241C3088B4201D3CB00C01AB8
S31520000890524183088B4201D38B00C01A5241430830
S315200008A08B4201D34B00C01A5241411A00D2014655
S315200008B0524110467047FFE701B5002000F006F8C8
S315200008C002BDC0460029F7D076E770477047C0467C
S315200008D000000000000000000000000000000000F2
S315200008E000000000000000000000000000000000E2
S315200008F000000000000000000000000000000000D2
S3152000090000000000000000000000000000000000C1
S31520000CD00C000000040000000400000000010002D7
S31520000CE001000101010201030200020102020203C6
S31520000CF003010302000000000000000000000000C5
S31520000D0000000000D00C00200000000000000000C1
S31520000D10010000000100000051060020AD06002061
S30D20000D2009070020310600201E
S70520000000DA
