S01600002E2F44656275672F6C616262325F312E73313918
S315200000000248854600F010F9FEE7C04600C00120F0
S3152000001080B500AF0D4B18221A600D4B1B680C4B98
S3152000002000221A600A4B1A68094B0A490A431A60C9
S31520000030094A094B12881A80084B1A68074BAA21CD
S3152000004009040A431A60C046BD4680BD30380240C6
S31520000050000C024055550055040C02400C0C024081
S3152000006080B582B000AF0200FB1D1A70FB1D1B7805
S315200000700F2B44D89A00264BD3181B689F46254B36
S315200000803F221A703FE0234B06221A703BE0214B99
S315200000905B221A7037E01F4B4F221A7033E01D4B3C
S315200000A066221A702FE01B4B6D221A702BE0194B1B
S315200000B07D221A7027E0174B07221A7023E0154B72
S315200000C07F221A701FE0134B6F221A701BE0114B10
S315200000D077221A7017E00F4B7C221A7013E00D4B13
S315200000E039221A700FE00B4B3F221A700BE0094B96
S315200000F079221A7007E0074B71221A7003E0054B2C
S3152000010000221A70C046C046BD4602B080BDC04619
S3152000011048020020140C024080B582B000AF7860FF
S315200001207B68042B19D87B689A000E4BD3181B6862
S315200001309F460D4B10221A700FE00B4B20221A708F
S315200001400BE0094B40221A7007E0074B80221A70F9
S3152000015003E0054B00221A70C046C046BD4602B0D9
S3152000016080BDC04688020020150C024080B582B0B2
S3152000017000AF124AFB1D12781A70FB1D1B7808224D
S31520000180134001D0042315E0FB1D1B7804221340E5
S3152000019001D003230EE0FB1D1B780222134001D061
S315200001A0022307E0FB1D1B780122134001D0012307
S315200001B000E000231800BD4602B080BD110C0240AD
S315200001C090B587B000AF3B00164A13CA13C3126816
S315200001D01A6001237B6119E07B691800FFF79CFFF9
S315200001E0FFF7C4FF03003B613B69002B0BD00020C7
S315200001F0FFF792FF7B69013B9A003B69013BD318CD
S315200002003A00D35C09E07B6901337B617B69042B6F
S31520000210E2DD0020FFF780FFFF231800BD4607B070
S3152000022090BDC0469C02002080B582B000AFFFF78B
S31520000230EFFEFFF7C5FF0200FB1D1A70FB1D1B78A2
S315200002401800FFF70DFFF4E77E000020860000204F
S315200002508E000020960000209E000020A600002090
S31520000260AE000020B6000020BE000020C600002000
S31520000270CE000020D6000020DE000020E600002070
S31520000280EE000020F600002052010020320100205E
S315200002903A010020420100204A0100200102030AFF
S311200002A00405060B0708090C0E000F0DC4
S70520000000DA
