S01700002E2F44656275672F6175746F706F6E672E733139FD
S315200000000248854600F028F9FEE7C04600C00120D8
S3152000001080B500AF0C4B00221A600C4B29221A60C7
S315200000200B4B00221A60084B05221A60C046064B6D
S315200000301A6880235B021340F9D0034B00221A6012
S31520000040C046BD4680BDC04610E000E014E000E09A
S3152000005018E000E080B582B000AF786007E0FFF7D7
S31520000060D7FFFFF7D5FFFFF7D3FFFFF7D1FF7B6859
S315200000705A1E7A60002BF2D1C046BD4602B080BD22
S3152000008080B582B000AF78607B686421180000F0EC
S315200000908BFB03007B607B6801337B6004E0FA23E3
S315200000A09B001800FFF7D6FF7B685A1E7A60002B4C
S315200000B0F5D1C046BD4602B080BD80B500AFFFF782
S315200000C0A7FFFFF7A5FFC046BD4680BD80B584B01B
S315200000D000AFF860B9607A60FB68BA685A60FB685E
S315200000E07A689A60C046BD4604B080BD80B584B0AB
S315200000F000AF78600023FB601DE07B68DA687B68D0
S315200001001968FB6804335B00CB1804331B78D318BB
S3152000011018007B681A697B681968FB6804335B00E2
S31520000120CB1805331B78D3180122190000F082FA68
S31520000130FB680133FB607B681B681B68FA689A4280
S31520000140DBDDC046BD4604B080BD80B584B000AFBF
S3152000015078600023FB601DE07B68DA687B6819689D
S31520000160FB6804335B00CB1804331B78D3181800C4
S315200001707B681A697B681968FB6804335B00CB18B7
S3152000018005331B78D3180022190000F053FAFB68B8
S315200001900133FB607B681B681B68FA689A42DBDDCB
S315200001A0C046BD4604B080BD90B583B000AF786030
S315200001B07B689B697A68100098477B68DB68002B10
S315200001C009DC7B681C6A7B685B6859427B689A6895
S315200001D07B681800A0477B68DB68802B09DD7B687D
S315200001E01C6A7B685B6859427B689A687B68180042
S315200001F0A0477B681B69002B09DC7B681C6A7B682F
S3152000020059687B689B685A427B681800A0477B68C0
S315200002101B69402B09DD7B681C6A7B6859687B68F3
S315200002209B685A427B681800A0477B68DA687B681F
S315200002305B68D2187B68DA607B681A697B689B6882
S31520000240D2187B681A617B685B697A6810009847C8
S31520000250C046BD4603B090BD80B584B000AF78607F
S315200002603960084BFB6000F087F9FB681B6AF86869
S31520000270012204219847FB68DB69FA681000984739
S31520000280F9E7C046F408002080B582B000AF02002E
S31520000290FB1D1A70094B1B78DBB25AB2FB1D1B786B
S315200002A05BB204218B435BB213435AB2034BD2B2E7
S315200002B01A70C046BD4602B080BDC046141002402A
S315200002C080B582B000AF0200FB1D1A700A4B1B7866
S315200002D0DBB25BB2FA1D127804210A43D2B252B2C3
S315200002E0D24352B213405AB2034BD2B21A70C0460E
S315200002F0BD4602B080BDC0461410024080B582B013
S3152000030000AF0200FB1D1A70FB1D1B78082B0CD0BA
S3152000031002DC002B05D01AE0102B0DD0182B12D0A2
S3152000032015E01820FFF7CCFF11E00820FFF7ACFFFF
S315200003301020FFF7C5FF0AE01020FFF7A5FF0820D1
S31520000340FFF7BEFF03E01820FFF79EFFC046C0461A
S31520000350BD4602B080BD80B500AF4020FFF7B0FF9C
S31520000360124B134A1A600120FFF7AAFF0220FFF75B
S315200003708BFFFFF7A2FE09E04020FFF785FFFFF77E
S315200003809CFE4020FFF79CFFFFF797FE094B1B784A
S31520000390DBB25BB2002BEFDB4020FFF775FF034B90
S315200003A0054A1A60C046BD4680BDC04600100240C0
S315200003B055550000111002405555555580B584B04D
S315200003C000AF0200FB1D1A704020FFF779FF1A4B81
S315200003D01A4A1A600320FFF757FFFB1D1B781800E7
S315200003E0FFF78CFFFFF769FE4020FFF74DFF144A09
S315200003F00F23FB1812781A704020FFF761FF0E4B6F
S31520000400104A1A60FB1D1B78082B04D10820FFF721
S3152000041075FFFFF7A0FFFB1D1B78102B04D11020C2
S31520000420FFF76CFFFFF797FF0F23FB181B781800C9
S31520000430BD4604B080BDC0460010024055550000A0
S31520000440111002405555555580B582B000AF0200B7
S31520000450FB1D1A70BB1D0A1C1A701A4AFB1D1B783D
S315200004601370BB1D1B781800FFF748FFFFF725FE0A
S315200004704020FFF709FFFFF720FE4020FFF720FF6F
S31520000480BB1D1B780822134004D00820FFF736FF37
S31520000490FFF761FFBB1D1B781022134004D01020EC
S315200004A0FFF72CFFFFF757FF064B00221A7040205C
S315200004B0FFF7EAFE0020FFF721FFC046BD4602B047
S315200004C080BDC0461510024080B582B000AF020044
S315200004D0FB1D1A70BB1D0A1C1A704020FFF7F0FE88
S315200004E0BB1D1B781800FFF709FF0320FFF7E8FE66
S315200004F0BB1D1A78FB1D1B7811001800FFF7A4FFFF
S31520000500C046BD4602B080BD80B582B000AF0200B5
S31520000510FB1D1A70BB1D0A1C1A704020FFF7D0FE67
S31520000520BB1D1B781800FFF7E9FE0120FFF7ACFE84
S315200005300220FFF7C5FEBB1D1A78FB1D1B78110094
S315200005401800FFF781FFC046BD4602B080BD80B5CA
S3152000055082B000AF0200FB1D1A70FB1D1B7818002D
S31520000560FFF72CFFFB1D1B781800FFF727FF030062
S315200005701800BD4602B080BD80B500AF154B164AA7
S315200005801A604020FFF780FE0A20FFF763FD7820DF
S31520000590FFF796FE1E20FFF773FD2020FFF774FE5F
S315200005A018213E20FFF790FF18213F20FFF78CFFF0
S315200005B01821C020FFF788FF18214020FFF784FF6D
S315200005C01821B820FFF780FF0020FFF797FEC046CE
S315200005D0BD4680BD001002405555555580B582B0A8
S315200005E000AF00237B601EE07B685BB2482252424C
S315200005F013435BB2DBB218211800FFF765FF182101
S315200006004020FFF761FF00233B6006E01821002011
S31520000610FFF77AFF3B6801333B603B683F2BF5DDF4
S315200006207B6801337B607B68072BDDDDC046BD46DA
S3152000063002B080BDB0B588B000AFF860B9607A600E
S31520000640BB68002B00D1A9E0BB68402B00D9A5E0F0
S31520000650FB68002B00D1A1E0FB68802B00D99DE030
S31520000660BB68013BDB08BB61BB68013B072213402B
S31520000670072B2CD89A004B4BD3181B689F461F2359
S31520000680FB1801221A7022E01F23FB1802221A707F
S315200006901DE01F23FB1804221A7018E01F23FB18E5
S315200006A008221A7013E01F23FB1810221A700EE07E
S315200006B01F23FB1820221A7009E01F23FB18402253
S315200006C01A7004E01F23FB1880221A70C0467B682C
S315200006D0002B03D11F23FB1800221A70FB68402B26
S315200006E007D91E23FB1810221A70FB68413BFB60BA
S315200006F006E01E23FB1808221A70FB68013BFB60EC
S31520000700FB68DBB240221343DAB21E257B191B7825
S3152000071019001000FFF7D8FEBB695BB2482252428F
S3152000072013435BB2DAB27B191B7819001000FFF76E
S31520000730CBFE1723FC187B191B781800FFF707FF41
S3152000074003002370FB68DBB240221343DAB27B1925
S315200007501B7819001000FFF7D7FE7B68002B09D005
S315200007601F22BB18B9181722BA18097812780A431B
S315200007701A7008E01F22BB18BA18172179181278A8
S3152000078009780A401A701E23FB181A781F23FB18B3
S315200007901B7811001800FFF7B7FE00E0C046BD46E3
S315200007A008B0B0BD18090020002243088B4274D33C
S315200007B003098B425FD3030A8B4244D3030B8B423C
S315200007C028D3030C8B420DD3FF22090212BA030C45
S315200007D08B4202D31212090265D0030B8B4219D326
S315200007E000E0090AC30B8B4201D3CB03C01A524146
S315200007F0830B8B4201D38B03C01A5241430B8B428E
S3152000080001D34B03C01A5241030B8B4201D30B0376
S31520000810C01A5241C30A8B4201D3CB02C01A52419D
S31520000820830A8B4201D38B02C01A5241430A8B4260
S3152000083001D34B02C01A5241030A8B4201D30B0249
S31520000840C01A5241CDD2C3098B4201D3CB01C01A63
S31520000850524183098B4201D38B01C01A524143096D
S315200008608B4201D34B01C01A524103098B4201D35B
S315200008700B01C01A5241C3088B4201D3CB00C01AC8
S31520000880524183088B4201D38B00C01A5241430840
S315200008908B4201D34B00C01A5241411A00D2014665
S315200008A0524110467047FFE701B5002000F006F8D8
S315200008B002BDC0460029F7D076E770477047C0468C
S315200008C00C000000040000000400000000010002EB
S315200008D001000101010201030200020102020203DA
S315200008E003010302000000000000000000000000D9
S315200008F000000000C00800200000000000000000EA
S315200009000100000001000000ED0000204B01002046
S31520000910A9010020CD0000207E06002088060020A8
S31520000920920600209C060020A6060020B006002085
S30D20000930BA060020C4060020CF
S70520000000DA
